:10087000E4FDFCD3ED9FEC9E5015E4FBFA0BBB00AE
:0F088000010ABA03F8BBE9F50DBD00010C80E4D5
:01088F002246
:0C08BC00758920758DFD759850D28E2234
:0808D4008F993099FDC29922B1
:0708DC003098FDAF99C298AE
:0108E30022F2
:1008A900120890FF600C1208D4740129F9E43AFA8D
:0308B90080EE22AC
:100800001208BC75A881E4F58075A0FF1208DCA968
:1008100007B93012E5A0B4FF0DD2807F417E0012EF
:100820000870C2808038B93112E5A0B4FF0DD281C2
:100830007F417E00120870C2818023B9320DD282BE
:100840007F057E00120870C2828013B9330DD283F7
:100850007F057E00120870C2838003E4F58020A02B
:10086000057F311208D420A1A37F321208D4809CC6
:030000000208C82B
:0C08C800787FE4F6D8FD75810702080077
:10089000BB010689828A83E0225002E722BBFE0266
:0908A000E32289828A83E4932299
:00000001FF
