:10097300202020436F616C204D696E65202020206C
:10098300004D6F6E69746572696E672053797320C9
:10099300202000466F7277617264004261636B7757
:1009A300617264004C656674005269676874005331
:1009B300746F700054656D702041626E6F726D616B
:0F09C3006C004761732041626E6F726D616C0052
:080AE100020F0000020D0000ED
:0A0A5100D2B5C2B6D2B77F017E0015
:100A5B00E4FDFCD3ED9FEC9E5015E4FBFA0BBB00C1
:0F0A6B00010ABA03F8BBE9F50DBD00010C80E4E8
:010A7A002259
:0A0A9F00120AF27F01120AA97F80FB
:0A0AA9008F90C2B5120A53C2B722A3
:0B0A18007FC0120AA97BFF7A097984D5
:060A23008B088A09890A14
:100A2900E4F50BF50CAB08AA09A90A850C82850B1C
:100A3900831209EB6011F590050CE50C7002050BAA
:070A4900120A51C2B780DE62
:010A50002283
:080AEA008F90120A51C2B722DD
:0F0AC6007F38120AA97F0C120AA97F80020AA9A1
:0C0AD500758920758DFD759850D28E2219
:080AF2008F993099FDC2992291
:070AFA003098FDAF99C2988E
:010B010022D1
:100AB3001209D2FF600C120AF2740129F9E43AFA1E
:030AC30080EE22A0
:03002300020A7B53
:100A7B00C0E0C0D0309818E599B43108750F0075F7
:100A8B001001800BE599B43206750D00750E01D07F
:040A9B00D0D0E032A5
:10080000D282120AC6120AD57BFF7A097973120ABC
:1008100023120A1875A89075A01FE5A0641F60FA3E
:1008200020A0137F30120A9F7BFF7A097996120A63
:1008300023E5A0B41FFB20A1137F31120A9F7BFF89
:100840007A09799E120A23E5A0B41FFB20A2137F28
:1008500032120A9F7BFF7A0979A7120A23E5A0B416
:100860001FFB20A3137F33120A9F7BFF7A0979AC09
:10087000120A23E5A0B41FFB20A4137F34120A9FA1
:100880007BFF7A0979B2120A23E5A0B41FFB7F32FD
:100890007E00120A5BE5106401450F7016120AA271
:1008A0007BFF7A0979B7120A23C282E4F50FF510AB
:1008B00002081AE50E6402450D7016120AA27BFFAB
:1008C0007A0979C5120A23C282E4F50DF50E0208F1
:1008D0001A7F80120AA97BFF7A097973120A231200
:0708E0000A18D28202081A77
:030000000208E70C
:0C08E700787FE4F6D8FD75811002092E20
:1009D200BB010689828A83E0225002E722BBFE0223
:0909E200E32289828A83E4932256
:1009EB00BB010CE58229F582E5833AF583E02250C1
:1009FB0006E92582F8E622BBFE06E92582F8E2220B
:0D0A0B00E58229F582E5833AF583E4932224
:1008F300020800E493A3F8E493A34003F68001F213
:1009030008DFF48029E493A3F85407240CC8C33305
:10091300C4540F4420C8834004F456800146F6DFD4
:10092300E4800B0102040810204080900AE1E47E79
:10093300019360BCA3FF543F30E509541FFEE493C9
:10094300A360010ECF54C025E060A840B8E493A390
:10095300FAE493A3F8E493A3C8C582C8CAC583CABB
:10096300F0A3C8C582C8CAC583CADFE9DEE780BE73
:010AE900000C
:00000001FF
