:06086100C2837F0F7E0040
:10086700E4FDFCD3ED9FEC9E5015E4FBFA0BBB00B7
:0F087700010ABA03F8BBE9F50DBD00010C80E4DE
:01088600224F
:0C08D900758920758DFD759850D28E2217
:0808F1008F993099FDC2992294
:0708F9003098FDAF99C29891
:0109000022D4
:1008A000120887FF600C1208F1740129F9E43AFA82
:0308B00080EE22B5
:030003000208B33D
:1008B300C0D075D000C0077F781208F1C2A8D00756
:0308C300D0D03260
:030013000208C61A
:1008C600C0D075D000C0077F791208F1C2AAD00740
:0308D600D0D0324D
:100800001208D9D2AFD2A8D2AAE4F5801208F9A969
:1008100007B9300F20A002803AD280C281D282C2B2
:10082000838038B9310AC280D281C282D283802BC0
:10083000B9320DC280C281D282120861C282801B8D
:10084000B9330DD280C281C282120861C280800B8E
:10085000B93408C280C281C282C283D2A8D2AA801F
:01086000ABEC
:030000000208E50E
:0C08E500787FE4F6D8FD7581070208005A
:10088700BB010689828A83E0225002E722BBFE026F
:09089700E32289828A83E49322A2
:00000001FF
