:1009910020202020204D696E65202020002020206D
:1009A100446574656374656420200020202020481C
:1009B100756D616E202020200020204465746563E0
:1009C100746564202020002020204D696C697461C9
:1009D10072792020202000202020526F626F742025
:1009E1002020004D616E75616C204D6F646500467D
:1009F1006F7277617264004261636B776172640048
:100A01004C6566740052696768740053746F7000B6
:0F0A11004175746F6D61746963204D6F6465008A
:040AA4007F327E001F
:100AA800E4FDFCD3ED9FEC9E5015E4FBFA0BBB0074
:0F0AB800010ABA03F8BBE9F50DBD00010C80E49B
:010AC700220C
:070AC8007F30120B2D7FC0EF
:100ACF008F90C2B5C2B6D2B77F017E00120AA8C2FC
:020ADF00B7223C
:060A66007BFF7A0979F024
:060A6C008B0D8A0E890FBC
:100A7200E4F510F511AB0DAA0EA90F8511828510B0
:100A820083120A39601BF5900511E51170020510F9
:100A9200D2B5C2B6D2B77F017E00120AA8C2B78011
:010AA200D47F
:010AA3002230
:100AF4008F90D2B5C2B6D2B77F017E00120AA8C2C7
:020B0400B72216
:0F0B06007F38120ACF7F0C120ACF7F80020ACFEE
:0C0B1500758920758DFD759850D28E22D8
:080B2D008F993099FDC2992255
:070B35003098FDAF99C29852
:010B3C002296
:100AE100120A20FF600C120B2D740129F9E43AFA65
:030AF10080EE2272
:03002300020900CF
:10090000C0E0C083C082C0D075D000C000C001C0AC
:1009100002C003C004C005C006C00730985AE5995C
:10092000647870207F01120ACF7F80120ACF7BFF8C
:100930007A097991120A6C7FC0120ACF7BFF7A097B
:10094000799E8024E5996479702C7F01120ACF7F0B
:1009500080120ACF7BFF7A0979AC120A6C7FC01231
:100960000ACF7BFF7A0979BA120A6CC2807F417E76
:1009700000120AA8D280C298D007D006D005D004B1
:10098000D003D002D001D000D0D0D082D083D0E02C
:010990003234
:10080000120B06120B157BFF7A0979C8120A6C7F4E
:10081000C0120ACF7BFF7A0979D8120A6C120AA497
:10082000120AA8120AA8D280D2AFD2AC75A01F308B
:1008300081030208CF7F01120ACF7F80120ACF7B8B
:10084000FF7A0979E4120A6C120AA4120AA8120AA1
:10085000A8E5A0641F60FA20A00E120AC8120A665A
:10086000120AA4E5A0B41FFB20A1167F31120ACA08
:100870007BFF7A0979F8120A6C120AA4E5A0B41F6A
:10088000FB20A2167F32120ACA7BFF7A0A79011274
:100890000A6C120AA4E5A0B41FFB20A3167F331232
:1008A0000ACA7BFF7A0A7906120A6C120AA4E5A02A
:1008B000B41FFB20A4167F34120ACA7BFF7A0A7980
:1008C0000C120A6C120AA4E5A0B41FFB120AA420A1
:1008D000810302082F7F01120ACF7F80120ACF7B8B
:1008E000FF7A0A7911120A6C120AA4120AA8120AD3
:1008F000A8120AC8120A66120AA4120AA802082F2D
:03000000020B21CF
:0C0B2100787FE4F6D8FD75811102080011
:100A2000BB010689828A83E0225002E722BBFE02D4
:090A3000E32289828A83E4932207
:100A3900BB010CE58229F582E5833AF583E0225072
:100A490006E92582F8E622BBFE06E92582F8E222BC
:0D0A5900E58229F582E5833AF583E49322D6
:00000001FF
